{
  "_format": "hh-sol-artifact-1",
  "contractName": "DEX",
  "sourceName": "contracts/DEX.sol",
  "abi": [
    {
      "inputs": [
        {
          "internalType": "address",
          "name": "_tokenA",
          "type": "address"
        },
        {
          "internalType": "address",
          "name": "_tokenB",
          "type": "address"
        }
      ],
      "stateMutability": "nonpayable",
      "type": "constructor"
    },
    {
      "anonymous": false,
      "inputs": [
        {
          "indexed": true,
          "internalType": "address",
          "name": "provider",
          "type": "address"
        },
        {
          "indexed": false,
          "internalType": "uint256",
          "name": "amountA",
          "type": "uint256"
        },
        {
          "indexed": false,
          "internalType": "uint256",
          "name": "amountB",
          "type": "uint256"
        },
        {
          "indexed": false,
          "internalType": "uint256",
          "name": "liquidityMinted",
          "type": "uint256"
        }
      ],
      "name": "LiquidityAdded",
      "type": "event"
    },
    {
      "anonymous": false,
      "inputs": [
        {
          "indexed": true,
          "internalType": "address",
          "name": "provider",
          "type": "address"
        },
        {
          "indexed": false,
          "internalType": "uint256",
          "name": "amountA",
          "type": "uint256"
        },
        {
          "indexed": false,
          "internalType": "uint256",
          "name": "amountB",
          "type": "uint256"
        },
        {
          "indexed": false,
          "internalType": "uint256",
          "name": "liquidityBurned",
          "type": "uint256"
        }
      ],
      "name": "LiquidityRemoved",
      "type": "event"
    },
    {
      "anonymous": false,
      "inputs": [
        {
          "indexed": true,
          "internalType": "address",
          "name": "trader",
          "type": "address"
        },
        {
          "indexed": true,
          "internalType": "address",
          "name": "tokenIn",
          "type": "address"
        },
        {
          "indexed": true,
          "internalType": "address",
          "name": "tokenOut",
          "type": "address"
        },
        {
          "indexed": false,
          "internalType": "uint256",
          "name": "amountIn",
          "type": "uint256"
        },
        {
          "indexed": false,
          "internalType": "uint256",
          "name": "amountOut",
          "type": "uint256"
        }
      ],
      "name": "Swap",
      "type": "event"
    },
    {
      "inputs": [
        {
          "internalType": "uint256",
          "name": "amountA",
          "type": "uint256"
        },
        {
          "internalType": "uint256",
          "name": "amountB",
          "type": "uint256"
        }
      ],
      "name": "addLiquidity",
      "outputs": [
        {
          "internalType": "uint256",
          "name": "liquidityMinted",
          "type": "uint256"
        }
      ],
      "stateMutability": "nonpayable",
      "type": "function"
    },
    {
      "inputs": [
        {
          "internalType": "uint256",
          "name": "amountIn",
          "type": "uint256"
        },
        {
          "internalType": "uint256",
          "name": "reserveIn",
          "type": "uint256"
        },
        {
          "internalType": "uint256",
          "name": "reserveOut",
          "type": "uint256"
        }
      ],
      "name": "getAmountOut",
      "outputs": [
        {
          "internalType": "uint256",
          "name": "amountOut",
          "type": "uint256"
        }
      ],
      "stateMutability": "pure",
      "type": "function"
    },
    {
      "inputs": [],
      "name": "getPrice",
      "outputs": [
        {
          "internalType": "uint256",
          "name": "price",
          "type": "uint256"
        }
      ],
      "stateMutability": "view",
      "type": "function"
    },
    {
      "inputs": [],
      "name": "getReserves",
      "outputs": [
        {
          "internalType": "uint256",
          "name": "_reserveA",
          "type": "uint256"
        },
        {
          "internalType": "uint256",
          "name": "_reserveB",
          "type": "uint256"
        }
      ],
      "stateMutability": "view",
      "type": "function"
    },
    {
      "inputs": [
        {
          "internalType": "address",
          "name": "",
          "type": "address"
        }
      ],
      "name": "liquidity",
      "outputs": [
        {
          "internalType": "uint256",
          "name": "",
          "type": "uint256"
        }
      ],
      "stateMutability": "view",
      "type": "function"
    },
    {
      "inputs": [
        {
          "internalType": "uint256",
          "name": "liquidityAmount",
          "type": "uint256"
        }
      ],
      "name": "removeLiquidity",
      "outputs": [
        {
          "internalType": "uint256",
          "name": "amountA",
          "type": "uint256"
        },
        {
          "internalType": "uint256",
          "name": "amountB",
          "type": "uint256"
        }
      ],
      "stateMutability": "nonpayable",
      "type": "function"
    },
    {
      "inputs": [],
      "name": "reserveA",
      "outputs": [
        {
          "internalType": "uint256",
          "name": "",
          "type": "uint256"
        }
      ],
      "stateMutability": "view",
      "type": "function"
    },
    {
      "inputs": [],
      "name": "reserveB",
      "outputs": [
        {
          "internalType": "uint256",
          "name": "",
          "type": "uint256"
        }
      ],
      "stateMutability": "view",
      "type": "function"
    },
    {
      "inputs": [
        {
          "internalType": "uint256",
          "name": "amountAIn",
          "type": "uint256"
        }
      ],
      "name": "swapAForB",
      "outputs": [
        {
          "internalType": "uint256",
          "name": "amountBOut",
          "type": "uint256"
        }
      ],
      "stateMutability": "nonpayable",
      "type": "function"
    },
    {
      "inputs": [
        {
          "internalType": "uint256",
          "name": "amountBIn",
          "type": "uint256"
        }
      ],
      "name": "swapBForA",
      "outputs": [
        {
          "internalType": "uint256",
          "name": "amountAOut",
          "type": "uint256"
        }
      ],
      "stateMutability": "nonpayable",
      "type": "function"
    },
    {
      "inputs": [],
      "name": "tokenA",
      "outputs": [
        {
          "internalType": "address",
          "name": "",
          "type": "address"
        }
      ],
      "stateMutability": "view",
      "type": "function"
    },
    {
      "inputs": [],
      "name": "tokenB",
      "outputs": [
        {
          "internalType": "address",
          "name": "",
          "type": "address"
        }
      ],
      "stateMutability": "view",
      "type": "function"
    },
    {
      "inputs": [],
      "name": "totalLiquidity",
      "outputs": [
        {
          "internalType": "uint256",
          "name": "",
          "type": "uint256"
        }
      ],
      "stateMutability": "view",
      "type": "function"
    }
  ],
  "bytecode": "0x608060405234801561001057600080fd5b50604051610e5d380380610e5d83398101604081905261002f9161007c565b600080546001600160a01b039384166001600160a01b031991821617909155600180549290931691161790556100af565b80516001600160a01b038116811461007757600080fd5b919050565b6000806040838503121561008f57600080fd5b61009883610060565b91506100a660208401610060565b90509250929050565b610d9f806100be6000396000f3fe608060405234801561001057600080fd5b50600436106100cf5760003560e01c80635f64b55b1161008c5780639cd441da116100665780639cd441da14610194578063b8c876b1146101a7578063dc5fa6c5146101c7578063e619a498146101d057600080fd5b80635f64b55b1461016657806398d5fdca146101795780639c8f9f231461018157600080fd5b806303102091146100d4578063054d50d4146100fa5780630902f1ac1461010d5780630fc63d101461012957806315770f921461015457806319e36f3b1461015d575b600080fd5b6100e76100e2366004610bed565b6101e3565b6040519081526020015b60405180910390f35b6100e7610108366004610c06565b610392565b6002546003545b604080519283526020830191909152016100f1565b60005461013c906001600160a01b031681565b6040516001600160a01b0390911681526020016100f1565b6100e760045481565b6100e760035481565b60015461013c906001600160a01b031681565b6100e761044c565b61011461018f366004610bed565b6104a3565b6100e76101a2366004610c32565b610715565b6100e76101b5366004610c54565b60056020526000908152604090205481565b6100e760025481565b6100e76101de366004610bed565b6109e0565b600080821161020d5760405162461bcd60e51b815260040161020490610c84565b60405180910390fd5b61021c82600254600354610392565b6000546040516323b872dd60e01b81529192506001600160a01b0316906323b872dd9061025190339030908790600401610ca8565b6020604051808303816000875af1158015610270573d6000803e3d6000fd5b505050506040513d601f19601f820116820180604052508101906102949190610ccc565b5060015460405163a9059cbb60e01b8152336004820152602481018390526001600160a01b039091169063a9059cbb906044016020604051808303816000875af11580156102e6573d6000803e3d6000fd5b505050506040513d601f19601f8201168201806040525081019061030a9190610ccc565b50816002600082825461031d9190610d04565b9250508190555080600360008282546103369190610d1d565b909155505060015460005460408051858152602081018590526001600160a01b03938416939092169133917fcd3829a3813dc3cdd188fd3d01dcf3268c16be2fdd2dd21d0665418816e4606291015b60405180910390a4919050565b60008084116103b35760405162461bcd60e51b815260040161020490610c84565b6000831180156103c35750600082115b6103fe5760405162461bcd60e51b815260206004820152600c60248201526b4e6f206c697175696469747960a01b6044820152606401610204565b600061040c856103e5610d30565b9050600061041a8483610d30565b905060008261042b876103e8610d30565b6104359190610d04565b90506104418183610d47565b979650505050505050565b6000806002541161048e5760405162461bcd60e51b815260206004820152600c60248201526b4e6f206c697175696469747960a01b6044820152606401610204565b60025460035461049e9190610d47565b905090565b600080600083116104e75760405162461bcd60e51b815260206004820152600e60248201526d5a65726f206c697175696469747960901b6044820152606401610204565b336000908152600560205260409020548311156105365760405162461bcd60e51b815260206004820152600d60248201526c04e6f7420656e6f756768204c5609c1b6044820152606401610204565b6004546002546105469085610d30565b6105509190610d47565b9150600454600354846105639190610d30565b61056d9190610d47565b33600090815260056020526040812080549293508592909190610591908490610d1d565b9250508190555082600460008282546105aa9190610d1d565b9250508190555081600260008282546105c39190610d1d565b9250508190555080600360008282546105dc9190610d1d565b909155505060005460405163a9059cbb60e01b8152336004820152602481018490526001600160a01b039091169063a9059cbb906044016020604051808303816000875af1158015610632573d6000803e3d6000fd5b505050506040513d601f19601f820116820180604052508101906106569190610ccc565b5060015460405163a9059cbb60e01b8152336004820152602481018390526001600160a01b039091169063a9059cbb906044016020604051808303816000875af11580156106a8573d6000803e3d6000fd5b505050506040513d601f19601f820116820180604052508101906106cc9190610ccc565b50604080518381526020810183905290810184905233907f1dc8bb69df2b8e91fbdcbfcf93d951b3f0000f085a95fe3f7946d6161439245d9060600160405180910390a2915091565b600080831180156107265750600082115b6107605760405162461bcd60e51b815260206004820152600b60248201526a16995c9bc8185b5bdd5b9d60aa1b6044820152606401610204565b6000546040516323b872dd60e01b81526001600160a01b03909116906323b872dd9061079490339030908890600401610ca8565b6020604051808303816000875af11580156107b3573d6000803e3d6000fd5b505050506040513d601f19601f820116820180604052508101906107d79190610ccc565b506001546040516323b872dd60e01b81526001600160a01b03909116906323b872dd9061080c90339030908790600401610ca8565b6020604051808303816000875af115801561082b573d6000803e3d6000fd5b505050506040513d601f19601f8201168201806040525081019061084f9190610ccc565b506004546000036108735761086c6108678385610d30565b610b7d565b90506108e7565b6002546108809083610d30565b60035461088d9085610d30565b146108ca5760405162461bcd60e51b815260206004820152600d60248201526c496e76616c696420726174696f60981b6044820152606401610204565b6002546004546108da9085610d30565b6108e49190610d47565b90505b600081116109285760405162461bcd60e51b815260206004820152600e60248201526d5a65726f206c697175696469747960901b6044820152606401610204565b3360009081526005602052604081208054839290610947908490610d04565b9250508190555080600460008282546109609190610d04565b9250508190555082600260008282546109799190610d04565b9250508190555081600360008282546109929190610d04565b9091555050604080518481526020810184905290810182905233907f64b83944e79c3ce8d4c297411de637c3e102d064677aac0c163976ebdcd6f50e9060600160405180910390a292915050565b6000808211610a015760405162461bcd60e51b815260040161020490610c84565b610a1082600354600254610392565b6001546040516323b872dd60e01b81529192506001600160a01b0316906323b872dd90610a4590339030908790600401610ca8565b6020604051808303816000875af1158015610a64573d6000803e3d6000fd5b505050506040513d601f19601f82011682018060405250810190610a889190610ccc565b5060005460405163a9059cbb60e01b8152336004820152602481018390526001600160a01b039091169063a9059cbb906044016020604051808303816000875af1158015610ada573d6000803e3d6000fd5b505050506040513d601f19601f82011682018060405250810190610afe9190610ccc565b508160036000828254610b119190610d04565b925050819055508060026000828254610b2a9190610d1d565b909155505060005460015460408051858152602081018590526001600160a01b03938416939092169133917fcd3829a3813dc3cdd188fd3d01dcf3268c16be2fdd2dd21d0665418816e460629101610385565b60006003821115610bde5750806000610b97600283610d47565b610ba2906001610d04565b90505b81811015610bd857905080600281610bbd8186610d47565b610bc79190610d04565b610bd19190610d47565b9050610ba5565b50919050565b8115610be8575060015b919050565b600060208284031215610bff57600080fd5b5035919050565b600080600060608486031215610c1b57600080fd5b505081359360208301359350604090920135919050565b60008060408385031215610c4557600080fd5b50508035926020909101359150565b600060208284031215610c6657600080fd5b81356001600160a01b0381168114610c7d57600080fd5b9392505050565b6020808252600a908201526916995c9bc81a5b9c1d5d60b21b604082015260600190565b6001600160a01b039384168152919092166020820152604081019190915260600190565b600060208284031215610cde57600080fd5b81518015158114610c7d57600080fd5b634e487b7160e01b600052601160045260246000fd5b80820180821115610d1757610d17610cee565b92915050565b81810381811115610d1757610d17610cee565b8082028115828204841417610d1757610d17610cee565b600082610d6457634e487b7160e01b600052601260045260246000fd5b50049056fea2646970667358221220ed7da9708dff2e300397a3a78eb4b1a90dbb2be767ed0e62c8e6cbc0b341600e64736f6c63430008130033",
  "linkReferences": {},
  "deployedLinkReferences": {}
}